{
  "contractName": "mkulima",
  "abi": [
    {
      "inputs": [],
      "name": "numberofProducts",
      "outputs": [
        {
          "internalType": "uint256",
          "name": "",
          "type": "uint256"
        }
      ],
      "stateMutability": "view",
      "type": "function",
      "constant": true
    },
    {
      "inputs": [
        {
          "internalType": "uint256",
          "name": "",
          "type": "uint256"
        }
      ],
      "name": "products",
      "outputs": [
        {
          "internalType": "string",
          "name": "productName",
          "type": "string"
        },
        {
          "internalType": "address",
          "name": "owner",
          "type": "address"
        },
        {
          "internalType": "uint256",
          "name": "price",
          "type": "uint256"
        },
        {
          "internalType": "string",
          "name": "image",
          "type": "string"
        },
        {
          "internalType": "uint256",
          "name": "stock",
          "type": "uint256"
        },
        {
          "internalType": "string",
          "name": "location",
          "type": "string"
        }
      ],
      "stateMutability": "view",
      "type": "function",
      "constant": true
    },
    {
      "inputs": [
        {
          "internalType": "string",
          "name": "_productName",
          "type": "string"
        },
        {
          "internalType": "uint256",
          "name": "_price",
          "type": "uint256"
        },
        {
          "internalType": "string",
          "name": "_image",
          "type": "string"
        },
        {
          "internalType": "string",
          "name": "_location",
          "type": "string"
        }
      ],
      "name": "addProduct",
      "outputs": [],
      "stateMutability": "nonpayable",
      "type": "function"
    }
  ],
  "bytecode": "0x608060405234801561001057600080fd5b5061096a806100206000396000f3fe608060405234801561001057600080fd5b50600436106100415760003560e01c80631500b9e3146100465780637acc0b2014610064578063d732ce3214610099575b600080fd5b61004e6100b5565b60405161005b9190610495565b60405180910390f35b61007e600480360381019061007991906104f0565b6100bb565b604051610090969594939291906105f7565b60405180910390f35b6100b360048036038101906100ae91906107a2565b6102af565b005b60005481565b60016020528060005260406000206000915090508060000180546100de9061088c565b80601f016020809104026020016040519081016040528092919081815260200182805461010a9061088c565b80156101575780601f1061012c57610100808354040283529160200191610157565b820191906000526020600020905b81548152906001019060200180831161013a57829003601f168201915b5050505050908060010160009054906101000a900473ffffffffffffffffffffffffffffffffffffffff16908060020154908060030180546101989061088c565b80601f01602080910402602001604051908101604052809291908181526020018280546101c49061088c565b80156102115780601f106101e657610100808354040283529160200191610211565b820191906000526020600020905b8154815290600101906020018083116101f457829003601f168201915b50505050509080600401549080600501805461022c9061088c565b80601f01602080910402602001604051908101604052809291908181526020018280546102589061088c565b80156102a55780601f1061027a576101008083540402835291602001916102a5565b820191906000526020600020905b81548152906001019060200180831161028857829003601f168201915b5050505050905086565b6000808154809291906102c1906108ec565b91905055506040518060c001604052808581526020013373ffffffffffffffffffffffffffffffffffffffff16815260200184815260200183815260200160008152602001828152506001600080548152602001908152602001600020600082015181600001908051906020019061033a9291906103d9565b5060208201518160010160006101000a81548173ffffffffffffffffffffffffffffffffffffffff021916908373ffffffffffffffffffffffffffffffffffffffff1602179055506040820151816002015560608201518160030190805190602001906103a89291906103d9565b506080820151816004015560a08201518160050190805190602001906103cf9291906103d9565b5090505050505050565b8280546103e59061088c565b90600052602060002090601f016020900481019282610407576000855561044e565b82601f1061042057805160ff191683800117855561044e565b8280016001018555821561044e579182015b8281111561044d578251825591602001919060010190610432565b5b50905061045b919061045f565b5090565b5b80821115610478576000816000905550600101610460565b5090565b6000819050919050565b61048f8161047c565b82525050565b60006020820190506104aa6000830184610486565b92915050565b6000604051905090565b600080fd5b600080fd5b6104cd8161047c565b81146104d857600080fd5b50565b6000813590506104ea816104c4565b92915050565b600060208284031215610506576105056104ba565b5b6000610514848285016104db565b91505092915050565b600081519050919050565b600082825260208201905092915050565b60005b8381101561055757808201518184015260208101905061053c565b83811115610566576000848401525b50505050565b6000601f19601f8301169050919050565b60006105888261051d565b6105928185610528565b93506105a2818560208601610539565b6105ab8161056c565b840191505092915050565b600073ffffffffffffffffffffffffffffffffffffffff82169050919050565b60006105e1826105b6565b9050919050565b6105f1816105d6565b82525050565b600060c0820190508181036000830152610611818961057d565b905061062060208301886105e8565b61062d6040830187610486565b818103606083015261063f818661057d565b905061064e6080830185610486565b81810360a0830152610660818461057d565b9050979650505050505050565b600080fd5b600080fd5b7f4e487b7100000000000000000000000000000000000000000000000000000000600052604160045260246000fd5b6106af8261056c565b810181811067ffffffffffffffff821117156106ce576106cd610677565b5b80604052505050565b60006106e16104b0565b90506106ed82826106a6565b919050565b600067ffffffffffffffff82111561070d5761070c610677565b5b6107168261056c565b9050602081019050919050565b82818337600083830152505050565b6000610745610740846106f2565b6106d7565b90508281526020810184848401111561076157610760610672565b5b61076c848285610723565b509392505050565b600082601f8301126107895761078861066d565b5b8135610799848260208601610732565b91505092915050565b600080600080608085870312156107bc576107bb6104ba565b5b600085013567ffffffffffffffff8111156107da576107d96104bf565b5b6107e687828801610774565b94505060206107f7878288016104db565b935050604085013567ffffffffffffffff811115610818576108176104bf565b5b61082487828801610774565b925050606085013567ffffffffffffffff811115610845576108446104bf565b5b61085187828801610774565b91505092959194509250565b7f4e487b7100000000000000000000000000000000000000000000000000000000600052602260045260246000fd5b600060028204905060018216806108a457607f821691505b6020821081036108b7576108b661085d565b5b50919050565b7f4e487b7100000000000000000000000000000000000000000000000000000000600052601160045260246000fd5b60006108f78261047c565b91507fffffffffffffffffffffffffffffffffffffffffffffffffffffffffffffffff8203610929576109286108bd565b5b60018201905091905056fea2646970667358221220190d47f38da8657b86ef0635b7bc928253451a33a0c3e69b4873dbe65dbe7a9f64736f6c634300080d0033",
  "immutableReferences": {},
  "source": "contract mkulima{\r\n    struct product{\r\n        string productName;\r\n        address owner;\r\n        uint price;\r\n        string image;\r\n        uint stock;\r\n        string location;\r\n    }\r\nuint public numberofProducts;\r\nmapping(uint =>product) public products;\r\nfunction addProduct(string memory _productName, uint _price, string memory _image, string memory _location) public {\r\n    numberofProducts++;\r\n    products[numberofProducts]=product(_productName, msg.sender, _price, _image, 0, _location);\r\n}\r\n}",
  "sourcePath": "C:\\Users\\hazard\\Desktop\\ukulima\\mkulimakonekt\\contracts\\contracts\\mkulima.sol",
  "compiler": {
    "name": "solc",
    "version": "0.8.13+commit.abaa5c0e.Emscripten.clang"
  },
  "schemaVersion": "3.4.13",
  "updatedAt": "2023-05-23T21:03:17.946Z",
  "networkType": "ethereum",
  "devdoc": {
    "kind": "dev",
    "methods": {},
    "version": 1
  },
  "userdoc": {
    "kind": "user",
    "methods": {},
    "version": 1
  }
}