{
  "contractName": "mkulima",
  "abi": [
    {
      "inputs": [
        {
          "internalType": "address",
          "name": "",
          "type": "address"
        },
        {
          "internalType": "uint256",
          "name": "",
          "type": "uint256"
        }
      ],
      "name": "buyTransactions",
      "outputs": [
        {
          "internalType": "address",
          "name": "buyer",
          "type": "address"
        },
        {
          "internalType": "string",
          "name": "property",
          "type": "string"
        },
        {
          "internalType": "uint256",
          "name": "price",
          "type": "uint256"
        }
      ],
      "stateMutability": "view",
      "type": "function"
    },
    {
      "inputs": [],
      "name": "numberofProducts",
      "outputs": [
        {
          "internalType": "uint256",
          "name": "",
          "type": "uint256"
        }
      ],
      "stateMutability": "view",
      "type": "function"
    },
    {
      "inputs": [
        {
          "internalType": "uint256",
          "name": "",
          "type": "uint256"
        }
      ],
      "name": "products",
      "outputs": [
        {
          "internalType": "uint256",
          "name": "id",
          "type": "uint256"
        },
        {
          "internalType": "string",
          "name": "productName",
          "type": "string"
        },
        {
          "internalType": "address payable",
          "name": "owner",
          "type": "address"
        },
        {
          "internalType": "uint256",
          "name": "price",
          "type": "uint256"
        },
        {
          "internalType": "string",
          "name": "image",
          "type": "string"
        },
        {
          "internalType": "uint256",
          "name": "stock",
          "type": "uint256"
        },
        {
          "internalType": "string",
          "name": "location",
          "type": "string"
        }
      ],
      "stateMutability": "view",
      "type": "function"
    },
    {
      "inputs": [
        {
          "internalType": "string",
          "name": "_productName",
          "type": "string"
        },
        {
          "internalType": "uint256",
          "name": "_price",
          "type": "uint256"
        },
        {
          "internalType": "string",
          "name": "_image",
          "type": "string"
        },
        {
          "internalType": "string",
          "name": "_location",
          "type": "string"
        }
      ],
      "name": "addProduct",
      "outputs": [],
      "stateMutability": "nonpayable",
      "type": "function"
    },
    {
      "inputs": [
        {
          "internalType": "uint256",
          "name": "_product_id",
          "type": "uint256"
        }
      ],
      "name": "buyProduct",
      "outputs": [],
      "stateMutability": "payable",
      "type": "function"
    },
    {
      "inputs": [
        {
          "internalType": "uint256",
          "name": "_product_id",
          "type": "uint256"
        }
      ],
      "name": "updateStock",
      "outputs": [],
      "stateMutability": "nonpayable",
      "type": "function"
    }
  ],
  "bytecode": "0x608060405234801561001057600080fd5b5061118c806100206000396000f3fe6080604052600436106100555760003560e01c80631500b9e31461005a5780637acc0b20146100855780638642269e146100c8578063ad265f8c146100e4578063d3d8f69914610123578063d732ce321461014c575b600080fd5b34801561006657600080fd5b5061006f610175565b60405161007c9190610a71565b60405180910390f35b34801561009157600080fd5b506100ac60048036038101906100a79190610acc565b61017b565b6040516100bf9796959493929190610bd3565b60405180910390f35b6100e260048036038101906100dd9190610acc565b610375565b005b3480156100f057600080fd5b5061010b60048036038101906101069190610c95565b6106b7565b60405161011a93929190610ce4565b60405180910390f35b34801561012f57600080fd5b5061014a60048036038101906101459190610acc565b6107a6565b005b34801561015857600080fd5b50610173600480360381019061016e9190610e57565b610879565b005b60005481565b60016020528060005260406000206000915090508060000154908060010180546101a490610f41565b80601f01602080910402602001604051908101604052809291908181526020018280546101d090610f41565b801561021d5780601f106101f25761010080835404028352916020019161021d565b820191906000526020600020905b81548152906001019060200180831161020057829003601f168201915b5050505050908060020160009054906101000a900473ffffffffffffffffffffffffffffffffffffffff169080600301549080600401805461025e90610f41565b80601f016020809104026020016040519081016040528092919081815260200182805461028a90610f41565b80156102d75780601f106102ac576101008083540402835291602001916102d7565b820191906000526020600020905b8154815290600101906020018083116102ba57829003601f168201915b5050505050908060050154908060060180546102f290610f41565b80601f016020809104026020016040519081016040528092919081815260200182805461031e90610f41565b801561036b5780601f106103405761010080835404028352916020019161036b565b820191906000526020600020905b81548152906001019060200180831161034e57829003601f168201915b5050505050905087565b60006001600083815260200190815260200160002060020160009054906101000a900473ffffffffffffffffffffffffffffffffffffffff1690506000600160008481526020019081526020016000206005015411610409576040517f08c379a000000000000000000000000000000000000000000000000000000000815260040161040090610fbe565b60405180910390fd5b34600160008481526020019081526020016000206003015414610461576040517f08c379a00000000000000000000000000000000000000000000000000000000081526004016104589061102a565b60405180910390fd5b8073ffffffffffffffffffffffffffffffffffffffff166108fc349081150290604051600060405180830381858888f193505050501580156104a7573d6000803e3d6000fd5b50600160008054815260200190815260200160002060050160008154809291906104d090611079565b919050555060026000600160008054815260200190815260200160002060020160009054906101000a900473ffffffffffffffffffffffffffffffffffffffff1673ffffffffffffffffffffffffffffffffffffffff1673ffffffffffffffffffffffffffffffffffffffff16815260200190815260200160002060405180606001604052803373ffffffffffffffffffffffffffffffffffffffff16815260200160016000868152602001908152602001600020600101805461059390610f41565b80601f01602080910402602001604051908101604052809291908181526020018280546105bf90610f41565b801561060c5780601f106105e15761010080835404028352916020019161060c565b820191906000526020600020905b8154815290600101906020018083116105ef57829003601f168201915b5050505050815260200134815250908060018154018082558091505060019003906000526020600020906003020160009091909190915060008201518160000160006101000a81548173ffffffffffffffffffffffffffffffffffffffff021916908373ffffffffffffffffffffffffffffffffffffffff16021790555060208201518160010190805190602001906106a69291906109b5565b506040820151816002015550505050565b600260205281600052604060002081815481106106d357600080fd5b9060005260206000209060030201600091509150508060000160009054906101000a900473ffffffffffffffffffffffffffffffffffffffff169080600101805461071d90610f41565b80601f016020809104026020016040519081016040528092919081815260200182805461074990610f41565b80156107965780601f1061076b57610100808354040283529160200191610796565b820191906000526020600020905b81548152906001019060200180831161077957829003601f168201915b5050505050908060020154905083565b3373ffffffffffffffffffffffffffffffffffffffff166001600083815260200190815260200160002060020160009054906101000a900473ffffffffffffffffffffffffffffffffffffffff1673ffffffffffffffffffffffffffffffffffffffff161461084a576040517f08c379a0000000000000000000000000000000000000000000000000000000008152600401610841906110ee565b60405180910390fd5b6001600082815260200190815260200160002060050160008154809291906108719061110e565b919050555050565b60008081548092919061088b9061110e565b91905055506040518060e0016040528060005481526020018581526020013373ffffffffffffffffffffffffffffffffffffffff168152602001848152602001838152602001600081526020018281525060016000805481526020019081526020016000206000820151816000015560208201518160010190805190602001906109169291906109b5565b5060408201518160020160006101000a81548173ffffffffffffffffffffffffffffffffffffffff021916908373ffffffffffffffffffffffffffffffffffffffff1602179055506060820151816003015560808201518160040190805190602001906109849291906109b5565b5060a0820151816005015560c08201518160060190805190602001906109ab9291906109b5565b5090505050505050565b8280546109c190610f41565b90600052602060002090601f0160209004810192826109e35760008555610a2a565b82601f106109fc57805160ff1916838001178555610a2a565b82800160010185558215610a2a579182015b82811115610a29578251825591602001919060010190610a0e565b5b509050610a379190610a3b565b5090565b5b80821115610a54576000816000905550600101610a3c565b5090565b6000819050919050565b610a6b81610a58565b82525050565b6000602082019050610a866000830184610a62565b92915050565b6000604051905090565b600080fd5b600080fd5b610aa981610a58565b8114610ab457600080fd5b50565b600081359050610ac681610aa0565b92915050565b600060208284031215610ae257610ae1610a96565b5b6000610af084828501610ab7565b91505092915050565b600081519050919050565b600082825260208201905092915050565b60005b83811015610b33578082015181840152602081019050610b18565b83811115610b42576000848401525b50505050565b6000601f19601f8301169050919050565b6000610b6482610af9565b610b6e8185610b04565b9350610b7e818560208601610b15565b610b8781610b48565b840191505092915050565b600073ffffffffffffffffffffffffffffffffffffffff82169050919050565b6000610bbd82610b92565b9050919050565b610bcd81610bb2565b82525050565b600060e082019050610be8600083018a610a62565b8181036020830152610bfa8189610b59565b9050610c096040830188610bc4565b610c166060830187610a62565b8181036080830152610c288186610b59565b9050610c3760a0830185610a62565b81810360c0830152610c498184610b59565b905098975050505050505050565b6000610c6282610b92565b9050919050565b610c7281610c57565b8114610c7d57600080fd5b50565b600081359050610c8f81610c69565b92915050565b60008060408385031215610cac57610cab610a96565b5b6000610cba85828601610c80565b9250506020610ccb85828601610ab7565b9150509250929050565b610cde81610c57565b82525050565b6000606082019050610cf96000830186610cd5565b8181036020830152610d0b8185610b59565b9050610d1a6040830184610a62565b949350505050565b600080fd5b600080fd5b7f4e487b7100000000000000000000000000000000000000000000000000000000600052604160045260246000fd5b610d6482610b48565b810181811067ffffffffffffffff82111715610d8357610d82610d2c565b5b80604052505050565b6000610d96610a8c565b9050610da28282610d5b565b919050565b600067ffffffffffffffff821115610dc257610dc1610d2c565b5b610dcb82610b48565b9050602081019050919050565b82818337600083830152505050565b6000610dfa610df584610da7565b610d8c565b905082815260208101848484011115610e1657610e15610d27565b5b610e21848285610dd8565b509392505050565b600082601f830112610e3e57610e3d610d22565b5b8135610e4e848260208601610de7565b91505092915050565b60008060008060808587031215610e7157610e70610a96565b5b600085013567ffffffffffffffff811115610e8f57610e8e610a9b565b5b610e9b87828801610e29565b9450506020610eac87828801610ab7565b935050604085013567ffffffffffffffff811115610ecd57610ecc610a9b565b5b610ed987828801610e29565b925050606085013567ffffffffffffffff811115610efa57610ef9610a9b565b5b610f0687828801610e29565b91505092959194509250565b7f4e487b7100000000000000000000000000000000000000000000000000000000600052602260045260246000fd5b60006002820490506001821680610f5957607f821691505b602082108103610f6c57610f6b610f12565b5b50919050565b7f6f7574206f662073746f636b0000000000000000000000000000000000000000600082015250565b6000610fa8600c83610b04565b9150610fb382610f72565b602082019050919050565b60006020820190508181036000830152610fd781610f9b565b9050919050565b7f796f75206e65656420746f207061792074686520657861637420707269636500600082015250565b6000611014601f83610b04565b915061101f82610fde565b602082019050919050565b6000602082019050818103600083015261104381611007565b9050919050565b7f4e487b7100000000000000000000000000000000000000000000000000000000600052601160045260246000fd5b600061108482610a58565b9150600082036110975761109661104a565b5b600182039050919050565b7f6f6e6c79206f776e65722063616e20706572666f726d00000000000000000000600082015250565b60006110d8601683610b04565b91506110e3826110a2565b602082019050919050565b60006020820190508181036000830152611107816110cb565b9050919050565b600061111982610a58565b91507fffffffffffffffffffffffffffffffffffffffffffffffffffffffffffffffff820361114b5761114a61104a565b5b60018201905091905056fea26469706673582212204774f44294441966d2534544383d3bb1880160ffff45d691151fcd1bc554e3b764736f6c634300080d0033",
  "immutableReferences": {},
  "source": "// SPDX-License-Identifier: MIT\r\n// Tells the Solidity compiler to compile only from v0.8.13 to v0.9.0\r\npragma solidity ^0.8.13;\r\n\r\ncontract mkulima{\r\n    struct product{\r\n        uint id;\r\n        string productName;\r\n        address payable owner;\r\n        uint price;\r\n        string image;\r\n        uint stock;\r\n        string location;\r\n    }\r\n\r\n    struct buyLogs{\r\n        address buyer;\r\n        string property;\r\n        uint price;\r\n    }\r\n\r\n    uint public numberofProducts;\r\n    mapping(uint =>product) public products;\r\n    mapping(address => buyLogs[]) public buyTransactions;\r\n    function addProduct(string memory _productName, uint _price, string memory _image, string memory _location) public {\r\n        numberofProducts++;\r\n        products[numberofProducts]=product(numberofProducts, _productName, payable(msg.sender), _price, _image, 0, _location);\r\n    }\r\n\r\n    function buyProduct(uint _product_id) public payable{\r\n        address payable owner = payable(products[_product_id].owner);\r\n        require(products[_product_id].stock > 0, \"out of stock\");\r\n        require(products[_product_id].price == msg.value, \"you need to pay the exact price\");\r\n        owner.transfer(msg.value);\r\n        products[numberofProducts].stock--;\r\n        buyTransactions[products[numberofProducts].owner].push(buyLogs(msg.sender, products[_product_id].productName,msg.value));\r\n    }\r\n\r\n    function updateStock(uint _product_id) public {\r\n        require(products[_product_id].owner == msg.sender, \"only owner can perform\");\r\n        products[_product_id].stock++;\r\n    }\r\n}",
  "sourcePath": "C:\\Users\\hazard\\Desktop\\mkulimaKonekt\\contracts\\contracts\\mkulima.sol",
  "compiler": {
    "name": "solc",
    "version": "0.8.13+commit.abaa5c0e.Emscripten.clang"
  },
  "schemaVersion": "3.4.13",
  "updatedAt": "2023-05-26T19:51:06.265Z",
  "devdoc": {
    "kind": "dev",
    "methods": {},
    "version": 1
  },
  "userdoc": {
    "kind": "user",
    "methods": {},
    "version": 1
  }
}